:020000040000FA
:0400000051EF00F0CC
:100008005782D9CF02F0DACF03F09EAA12D0AECF32
:1000180004F0000E5524D96EDA6A020EDA2204C002
:10002800DFFF552AFE0E5518D8A402D0000E556ED3
:100038009E9AF2A204D0010E0001A46FF2927EA053
:1000480024D0F90EBC6E00019E4B9F2B9FBF0CD095
:10005800D00E9E5D070E9F59D8A006D09C4B9D2BB5
:10006800000E9F6F000E9E6F9A519C5D9D51800AF5
:10007800016E9B51800A0158D8A006D0010EA26FCC
:10008800000E9D6F000E9C6F7E90A4BAA49A03C0C8
:10009800DAFF02C0D9FF57921100EDEF11F000010D
:1000A800A451D8B412000B0E516E260E506E5E0E7F
:1000B800E82EFED7502EFCD7512EFAD7000E01019C
:1000C800386F44EF08F0000E3825D96EDA6A020E50
:1000D800DA22520EDE18D8A438D0010E3825D96E8F
:1000E800DA6A020EDA22490EDE18D8A42ED00B0ED8
:1000F800516E260E506E5E0EE82EFED7502EFCD79F
:10010800512EFAD7E20E066EFF0E076E000E096E2C
:10011800050E086E4CEC12F0150E516E4B0E506E1B
:10012800BE0EE82EFED7502EFCD7512EFAD700D09F
:10013800000E056E020E066E000E086E200E076E8B
:10014800000E0A6E096864EC0EF0000E01013825F5
:10015800D96EDA6A020EDA22430EDE18D8A442EF0C
:1001680008F0010E3825D96EDA6A020EDA224D0E31
:10017800DE18D8A442EF08F0020E3825D96EDA6AE4
:10018800020EDA22540EDE18D8A442EF08F0030E4D
:100198003825D96EDA6A020EDA22490EDE18D8A49A
:1001A80042EF08F0030E516E080E506E770EE82EDF
:1001B800FED7502EFCD7512EFAD700F07C0E066ED3
:1001C800FF0E076E000E096E0B0E086E4CEC12F057
:1001D800340E506EF20EE82EFED7502EFCD76EEC81
:1001E80013F0640E066EFF0E076E000E096E0B0EFE
:1001F800086E4CEC12F0820E506EDE0EE82EFED722
:10020800502EFCD7000E0101316F000E306F31BF48
:1002180005D0315119E13029D8B016D0000E30255B
:10022800D96E020E3121DA6E000E3025E16E030E12
:100238003121E26EDFCFE7FF060EE82EFED700D0B1
:100248000101304B312BE3D7000E066E030E076E0B
:10025800000E096E08684CEC12F021EE00F0090E51
:10026800DE6AE806FDE2000E0101336F000E326F10
:1002780033BF05D0335146E13229D8B043D0000E00
:100288000001B76F010EB86FE80EB96FFF0EBA6FB5
:1002980032C1BBF033C1BCF077EC12F0000E066E31
:1002A800010E076E000E096E040E086E4CEC12F07B
:1002B800000E01013225D96E030E3321DA6EDF50AC
:1002C800506E516A50C006F051C007F0000E096E1A
:1002D800010E086E4CEC12F0850E066EFF0E076ECE
:1002E800000E096E020E086E4CEC12F01A0E506EDB
:1002F800F80EE82EFED7502EFCD700D00101324B65
:10030800332BB6D7000E376F000E366F37BF07D0C6
:10031800375104E13629D8B05BD101D059D1000E4C
:100328003625D96E020E3721DA6E4D0EDE18D8A4A6
:100338004BD1010E3625D96E020E3721DA6E520ED8
:10034800DE18D8A441D1020E3625D96E020E372107
:10035800DA6E2B0EDE18D8A437D10B0EA96EA68044
:10036800A4A8FED7A828D8B403D0A850D8A42CD1C4
:10037800000E066E0F0E056E010E076EBFEC12F032
:10038800000E0101396F000E0B6F210E0A6F11D09C
:1003980039C105F0066A000E0A25D96E020E0B2136
:1003A800DA6EDF50076EBFEC12F00101392B0A4BF1
:1003B8000B2B000E0A25D96E020E0B21DA6E220EC7
:1003C800DE18D8A4E5D76EEC13F09D0E066EFE0E6F
:1003D800076E000E096E160E086E4CEC12F0150E24
:1003E800516E4B0E506EBE0EE82EFED7502EFCD727
:1003F800512EFAD700D0A90E066EFF0E076E000E1A
:10040800096E0B0E086E4CEC12F0000E0101196F0C
:10041800000E186F19BF03D019511AE115D018C171
:10042800A9FFA680A4A8FED7A8CF73FF340E506EEC
:10043800F20EE82EFED7502EFCD70101184B192BCF
:1004480019BFEDD7195104E10D0E185DD8A0E7D7F3
:10045800630E066EFE0E076E000E096E030E086E22
:100468004CEC12F00B0E516E260E506E5E0EE82EFE
:10047800FED7502EFCD7512EFAD7BD0E066EFF0EB2
:10048800076E000E096E090E086E4CEC12F00A0E8B
:1004980081EC13F09E0E066EFF0E076E000E096EBD
:1004A8000A0E086E4CEC12F0000E01011B6F000ED4
:1004B8001A6F1BBF06D01B510FE10D0E1A5DD8B085
:1004C8000BD01AC1A9FFA680A4A8FED7A8CF73FF96
:1004D80001011A4B1B2BEDD7C60E066EFE0E076EDA
:1004E800000E096E120E086E4CEC12F0D90E066E54
:1004F800FF0E076E000E096E080E086E4CEC12F027
:10050800000E01011D6F000E1C6F1DBF06D01D518E
:1005180011E10F0E1C5DD8B00DD0740E1C25D96EDC
:10052800000E1D21DA6EDF5081EC13F001011C4B27
:100538001D2BEBD70A0E81EC13F0F30E066EFF0E9F
:10054800076E000E096E040E086E4CEC12F0000ED9
:1005580001010D6F000E0C6F0CD0600E0C25D96ECA
:10056800000E0D21DA6EDF5081EC13F001010C4B07
:100578000D2B600E0C25D96E000E0D21DA6EDF50A2
:10058800D8A4EBD70A0E81EC13F0060E516E130EA9
:10059800506EAE0EE82EFED7502EFCD7512EFAD74D
:1005A8001A0E81EC13F00A0E81EC13F0150E516E41
:1005B8004B0E506EBE0EE82EFED7502EFCD7512E95
:1005C800FAD700D06EEC13F00101364B372B9ED6CC
:1005D8000A0E81EC13F0000E0101356F000E346F26
:1005E80035BF06D035511DE10D0E345DD8B019D098
:1005F80034C1A9FFA680A4A8FED7850E0101342521
:10060800D96E000E3521DA6EA8CFDFFF340E506E9A
:10061800F20EE82EFED7502EFCD70101344B352BB5
:10062800DFD70201245100018819D8A42CEF08F063
:100638000201255100018919D8A42CEF08F0020104
:10064800265100018A19D8A42CEF08F0020127517D
:1006580000018B19D8A42CEF08F0020128510001E1
:100668008C19D8A42CEF08F00201295100018D192A
:10067800D8A42CEF08F002012A5100018E19D8A441
:100688002CEF08F002012B5100018F19D8A42CEF90
:1006980008F002012C5100019019D8A42CEF08F0A1
:1006A80002012D5100019119D8A42CEF08F0000E79
:1006B80001013B6F000E3A6F22EF08F0000E3A2559
:1006C800D96E020E3B21DA6E3F0EDE18D8A403D194
:1006D8006EEC13F09D0E066EFE0E076E000E096E90
:1006E800160E086E4CEC12F0150E516E4B0E506E35
:1006F800BE0EE82EFED7502EFCD7512EFAD700D0CA
:10070800A90E066EFF0E076E000E096E090E086E22
:100718004CEC12F0000E01011F6F000E1E6F1FBF80
:1007280003D01F511AE115D01EC1A9FFA680A4A8A5
:10073800FED7A8CF73FF340E506EF20EE82EFED708
:10074800502EFCD701011E4B1F2B1FBFEDD71F5189
:1007580004E10D0E1E5DD8A0E7D7630E066EFE0EEF
:10076800076E000E096E030E086E4CEC12F0020EB6
:10077800516E040E506EBA0EE82EFED7502EFCD7DE
:10078800512EFAD700D0BD0E066EFF0E076E000E72
:10079800096E090E086E4CEC12F00A0E81EC13F08B
:1007A800180E066EFF0E076E000E096E0E0E086E0E
:1007B8004CEC12F0B30E066EFF0E076E000E096EBB
:1007C8000A0E086E4CEC12F089A00AD0FC0E066ED8
:1007D800FF0E076E000E096E020E086E4CEC12F04A
:1007E80089B00AD0F80E066EFF0E076E000E096E6D
:1007F800030E086E4CEC12F00A0E81EC13F0D90EC1
:10080800066EFF0E076E000E096E080E086E4CECA1
:1008180012F0000E0101216F000E206F21BF06D0DB
:10082800215111E10F0E205DD8B00DD0740E202596
:10083800D96E000E2121DA6EDF5081EC13F0010130
:10084800204B212BEBD70A0E81EC13F0F30E066E2A
:10085800FF0E076E000E096E040E086E4CEC12F0C7
:10086800000E01010F6F000E0E6F0CD0600E0E25EA
:10087800D96E000E0F21DA6EDF5081EC13F0010102
:100888000E4B0F2B600E0E25D96E000E0F21DA6E5F
:10089800DF50D8A4EBD70A0E81EC13F0030E516E8B
:1008A800080E506E770EE82EFED7502EFCD7512E2C
:1008B800FAD700F01A0E81EC13F0150E516E4B0E9C
:1008C800506EBE0EE82EFED7502EFCD7512EFAD70A
:1008D80000D06EEC13F0000E01013A25D96E020E1D
:1008E8003B21DA6E440EDE18D8A472D1010E3A25E7
:1008F800D96E020E3B21DA6E650EDE18D8A468D1D7
:10090800020E3A25D96E020E3B21DA6E6C0EDE1805
:10091800D8A45ED1030E3A25D96E020E3B21DA6EB9
:10092800610EDE18D8A454D1040E3A25D96E020EF1
:100938003B21DA6E790EDE18D8A44AD1000E066E75
:10094800100E056E060E3A25D96E020E3B21DA6EA0
:10095800DF50D00F076EBFEC12F0000E066E110EBE
:10096800056E070E01013A25D96E020E3B21DA6E9B
:10097800DF50D00F076EBFEC12F0000E066E120E9D
:10098800056E080E01013A25D96E020E3B21DA6E7A
:10099800DF50D00F076EBFEC12F0000E066E130E7C
:1009A800056E010E076EBFEC12F06EEC13F0100E20
:1009B800A96EA680A850640DF35000019A27F45040
:1009C8009B23110EA96EA680A8500A0DF3509A27F2
:1009D800F4509B23120EA96EA680A8509A27000EE9
:1009E8009B239D0E066EFE0E076E000E096E140EFA
:1009F800086E4CEC12F0150E516E4B0E506EBE0E7A
:100A0800E82EFED7502EFCD7512EFAD700D0A90ECB
:100A1800066EFF0E076E000E096E090E086E4CEC8E
:100A280012F0000E0101236F000E226F23BF06D0C3
:100A380023510FE10D0E225DD8B00BD022C1A9FFC2
:100A4800A680A4A8FED7A8CF73FF0101224B232BB1
:100A5800EDD7630E066EFE0E076E000E096E030ECE
:100A6800086E4CEC12F0150E516E4B0E506EBE0E09
:100A7800E82EFED7502EFCD7512EFAD700D0BD0E47
:100A8800066EFF0E076E000E096E090E086E4CEC1E
:100A980012F00A0E81EC13F0820E066EFE0E076E3F
:100AA800000E096E1E0E086E4CEC12F0000E0101CD
:100AB800256F100E246F25BF06D0255110E1130EA7
:100AC800245DD8B00CD024C1A9FFA680A4A8FED765
:100AD800A850300F736E0101244B252BECD70A0E5A
:100AE80081EC13F0D90E066EFF0E076E000E096E2C
:100AF800080E086E4CEC12F0000E0101276F000E74
:100B0800266F27BF06D0275111E10F0E265DD8B0FA
:100B18000DD0740E2625D96E000E2721DA6EDF500F
:100B280081EC13F00101264B272BEBD70A0E81EC41
:100B380013F0F30E066EFF0E076E000E096E040E1C
:100B4800086E4CEC12F0000E0101116F000E106FD0
:100B580015D01A0E506EF80EE82EFED7502EFCD780
:100B680000D0600E01011025D96E000E1121DA6E39
:100B7800DF5081EC13F00101104B112B600E102592
:100B8800D96E000E1121DA6EDF50D8A4E2D70A0E12
:100B980081EC13F0030E516E080E506E770EE82E9E
:100BA800FED7502EFCD7512EFAD700F01A0E81EC42
:100BB80013F00A0E81EC13F0150E516E4B0E506EA9
:100BC800BE0EE82EFED7502EFCD7512EFAD700D0F5
:100BD800000E01013A25D96E020E3B21DA6E4F0E46
:100BE800DE18D8A4E5D0010E3A25D96E020E3B21B5
:100BF800DA6E4E0EDE18D8A4DBD0020E3A25D96E76
:100C0800020E3B21DA6E310EDE18D8A4D1D06EEC7C
:100C180013F09D0E066EFE0E076E000E096E140E82
:100C2800086E4CEC12F0150E516E4B0E506EBE0E47
:100C3800E82EFED7502EFCD7512EFAD700D0A90E99
:100C4800066EFF0E076E000E096E090E086E4CEC5C
:100C580012F0000E0101296F000E286F29BF06D07F
:100C680029510FE10D0E285DD8B00BD028C1A9FF7E
:100C7800A680A4A8FED7A8CF73FF0101284B292B73
:100C8800EDD7630E066EFE0E076E000E096E030E9C
:100C9800086E4CEC12F0150E516E4B0E506EBE0ED7
:100CA800E82EFED7502EFCD7512EFAD700D0BD0E15
:100CB800066EFF0E076E000E096E090E086E4CECEC
:100CC80012F00A0E81EC13F0090E066EFF0E076E85
:100CD800000E096E0E0E086E4CEC12F0D90E066E60
:100CE800FF0E076E000E096E080E086E4CEC12F02F
:100CF800000E01012B6F000E2A6F2BBF06D02B515F
:100D080011E10F0E2A5DD8B00DD0740E2A25D96EC8
:100D1800000E2B21DA6EDF5081EC13F001012A4B13
:100D28002B2BEBD7F30E066EFF0E076E000E096E27
:100D3800040E086E4CEC12F0000E0101136F000E49
:100D4800126F0CD0600E1225D96E000E1321DA6EC8
:100D5800DF5081EC13F00101124B132B600E1225AA
:100D6800D96E000E1321DA6EDF50D8A4EBD70A0E25
:100D780081EC13F0030E516E080E506E770EE82EBC
:100D8800FED7502EFCD7512EFAD700F01A0E81EC60
:100D980013F00A0E81EC13F0150E516E4B0E506EC7
:100DA800BE0EE82EFED7502EFCD7512EFAD700D013
:100DB800000E01013A25D96E020E3B21DA6E4F0E64
:100DC800DE18D8A4EFD0010E3A25D96E020E3B21C9
:100DD800DA6E460EDE18D8A4E5D0020E3A25D96E92
:100DE800020E3B21DA6E460EDE18D8A4DBD0030EC5
:100DF8003A25D96E020E3B21DA6E310EDE18D8A4E0
:100E0800D1D06EEC13F09D0E066EFE0E076E000E2E
:100E1800096E140E086E4CEC12F0150E516E4B0E46
:100E2800506EBE0EE82EFED7502EFCD7512EFAD7A4
:100E380000D0A90E066EFF0E076E000E096E090E91
:100E4800086E4CEC12F0000E01012D6F000E2C6F95
:100E58002DBF06D02D510FE10D0E2C5DD8B00BD053
:100E68002CC1A9FFA680A4A8FED7A8CF73FF0101B3
:100E78002C4B2D2BEDD7630E066EFE0E076E000E63
:100E8800096E030E086E4CEC12F0150E516E4B0EE7
:100E9800506EBE0EE82EFED7502EFCD7512EFAD734
:100EA80000D0BD0E066EFF0E076E000E096E090E0D
:100EB800086E4CEC12F00A0E81EC13F0E90E066E87
:100EC800FE0E076E000E096E0D0E086E4CEC12F049
:100ED800D90E066EFF0E076E000E096E080E086E1C
:100EE8004CEC12F0000E01012F6F000E2E6F2FBF79
:100EF80006D02F5111E10F0E2E5DD8B00DD0740E13
:100F08002E25D96E000E2F21DA6EDF5081EC13F0FA
:100F180001012E4B2F2BEBD7F30E066EFF0E076E3B
:100F2800000E096E040E086E4CEC12F0000E010162
:100F3800156F000E146F0CD0600E1425D96E000EBC
:100F48001521DA6EDF5081EC13F00101144B152BDB
:100F5800600E1425D96E000E1521DA6EDF50D8A464
:100F6800EBD70A0E81EC13F0030E516E080E506E8B
:100F7800770EE82EFED7502EFCD7512EFAD700F068
:100F88001A0E81EC13F00A0E81EC13F0150E516E57
:100F98004B0E506EBE0EE82EFED7502EFCD7512EAB
:100FA800FAD700D0000E01013A25D96E020E3B2176
:100FB800DA6E4D0EDE18D8A43ED0010E3A25D96E51
:100FC800020E3B21DA6E520EDE18D8A434D0020E7F
:100FD8003A25D96E020E3B21DA6E2D0EDE18D8A402
:100FE8002AD00B0EA96EA680A4A8FED7000E066E06
:100FF8000F0E056E000E076EBFEC12F0000E010119
:10100800396F000E176F000E166F17BF06D01751F5
:1010180010E10D0E165DD8B00CD039C105F0066A86
:10102800000E076EBFEC12F00101392B164B172B7F
:10103800ECD76EEC13F001013A4B3B2B000E3A252E
:10104800D96E020E3B21DA6EDF50D8A462EF03F0AE
:101058009D0E066EFE0E076E000E096E140E086ECB
:101068004CEC12F0150E516E4B0E506EBE0EE82E63
:10107800FED7502EFCD7512EFAD700D00101382BBD
:10108800000E3825D96EDA6A020EDA22DF50D8A4AB
:1010980067EF00F0000E0001A46F120089844AD0A7
:1010A800EE0E066EFF0E076E000E096E040E086E39
:1010B8004CEC12F01F0E156E710E146E1E0EE82EFB
:1010C800FED7142EFCD7152EFAD700D00A0E000131
:1010D800A06530D0000EA06FF90E066EFE0E076EEA
:1010E800000E096E0F0E086E4CEC12F08994150E66
:1010F800156E4B0E146EBE0EE82EFED7142EFCD7BE
:10110800152EFAD700D08984EE0E066EFF0E076EF4
:10111800000E096E040E086E4CEC12F01F0E156ED0
:10112800710E146E1E0EE82EFED7142EFCD7152E47
:10113800FAD700D0AFEC11F00009D8B4B1D74C0EF3
:10114800066EFF0E076E000E096E0B0E086E4CEC55
:1011580012F016D0150E156E4B0E146EBE0EE82E3C
:10116800FED7142EFCD7152EFAD700D04C0E066EDB
:10117800FF0E076E000E096E0B0E086E4CEC12F097
:101188006FEC11F00009D8B4E5D7B20E066EFE0E6A
:10119800076E000E096E130E086E4CEC12F016D096
:1011A800150E156E4B0E146EBE0EE82EFED7142EBD
:1011B800FCD7152EFAD700D0B20E066EFE0E076EBB
:1011C800000E096E130E086E4CEC12F06FEC11F065
:1011D8000009D8B4E5D7D90E066EFE0E076E000ECC
:1011E800096E0F0E086E4CEC12F016D0150E156E27
:1011F8004B0E146EBE0EE82EFED7142EFCD7152EFD
:10120800FAD700D0D90E066EFE0E076E000E096ED4
:101218000F0E086E4CEC12F06FEC11F00009D8B408
:10122800E5D7270E066EFF0E076E000E096E0C0E30
:10123800086E4CEC12F016D0150E156E4B0E146E8F
:10124800BE0EE82EFED7142EFCD7152EFAD700D0E6
:10125800270E066EFF0E076E000E096E0C0E086E46
:101268004CEC12F06FEC11F00009D8B4E5D7580E29
:10127800066EFF0E076E000E096E0B0E086E4CEC24
:1012880012F016D0150E156E4B0E146EBE0EE82E0B
:10129800FED7142EFCD7152EFAD700D0580E066E9E
:1012A800FF0E076E000E096E0B0E086E4CEC12F066
:1012B8006FEC11F00009D8B4E5D7400E066EFF0EAA
:1012C800076E000E096E0B0E086E4CEC12F016D06D
:1012D800150E156E4B0E146EBE0EE82EFED7142E8C
:1012E800FCD7152EFAD700D0400E066EFF0E076EFB
:1012F800000E096E0B0E086E4CEC12F06FEC11F03C
:101308000009D8B4E5D7340E066EFF0E076E000E3E
:10131800096E0B0E086E4CEC12F016D0150E156EF9
:101328004B0E146EBE0EE82EFED7142EFCD7152ECB
:10133800FAD700D0340E066EFF0E076E000E096E47
:101348000B0E086E4CEC12F06FEC11F00009D8B4DB
:10135800E5D7880E066EFF0E076E000E096E0A0EA0
:10136800086E4CEC12F016D0150E156E4B0E146E5E
:10137800BE0EE82EFED7142EFCD7152EFAD700D0B5
:10138800880E066EFF0E076E000E096E0A0E086EB6
:101398004CEC12F06FEC11F00009D8B4E5D7C70E89
:1013A800066EFF0E076E000E096E090E086E4CECF5
:1013B80012F016D0150E156E4B0E146EBE0EE82EDA
:1013C800FED7142EFCD7152EFAD700D0C70E066EFE
:1013D800FF0E076E000E096E090E086E4CEC12F037
:1013E8006FEC11F00009D8B4E5D7D00E066EFF0EE9
:1013F800076E000E096E080E086E4CEC12F016D03F
:10140800150E156E4B0E146EBE0EE82EFED7142E5A
:10141800FCD7152EFAD700D0D00E066EFF0E076E39
:10142800000E096E080E086E4CEC12F06FEC11F00D
:101438000009D8B4E5D7700E066EFF0E076E000ED1
:10144800096E0B0E086E4CEC12F016D0150E156EC8
:101458004B0E146EBE0EE82EFED7142EFCD7152E9A
:10146800FAD700D0700E066EFF0E076E000E096EDA
:101478000B0E086E4CEC12F06FEC11F00009D8B4AA
:10148800E5D7470E066EFE0E076E000E096E1F0E9C
:10149800086E4CEC12F016D0150E156E4B0E146E2D
:1014A800BE0EE82EFED7142EFCD7152EFAD700D084
:1014B800470E066EFE0E076E000E096E1F0E086EB2
:1014C8004CEC12F06FEC11F00009D8B4E5D7670EB8
:1014D800066EFE0E076E000E096E1A0E086E4CECB4
:1014E80012F016D0150E156E4B0E146EBE0EE82EA9
:1014F800FED7142EFCD7152EFAD700D0670E066E2D
:10150800FE0E076E000E096E1A0E086E4CEC12F0F5
:101518006FEC11F00009D8A41200E4D746C0D9FF37
:1015280047C0DAFFDECFF6FFDDCFF7FF0800F55042
:10153800250AD8A445D146C0D9FF47C0DAFFDE2A1C
:10154800000EDD22000E0001976F000E966F96C008
:1015580052F097C053F098699969000EAE6F000E6B
:1015680014D0528046C0D9FF47C0DAFFDE2A000EE9
:10157800DD222ED05282F6D75284F4D75286F2D783
:101588005288F0D7000EAE6F010EAD6F21D046C065
:10159800D9FF47C0DAFFDECFF6FFDDCFF7FF08003F
:1015A800F5504A6E4B6A4B50000AD8A4EBD74A5004
:1015B800200AD8B4E3D7030AD8B4E2D7080AD8B4C3
:1015C800DBD7060AD8B4CDD71D0AD8B4D3D7DAD713
:1015D800AD51AE11D8B4DBD752B0529246C0D9FF44
:1015E80047C0DAFFDECFF6FFDDCFF7FF0800F55082
:1015F8002A0AD8A423D046C0D9FF47C0DAFFDE2A7A
:10160800000EDD2248C0D9FF49C0DAFFDFCF4AF01B
:10161800020EDE26DFCF4BF0000EDD224AC0D9FFD6
:101628004BC0DAFFDECF96F0DDCF97F097AF40D012
:101638005280966D971FD8B0972B3AD046C0D9FFE5
:1016480047C0DAFFDECF0CF0DDCF0DF0C4EC0DF0B3
:101658000CC096F00DC097F007D046C0D9FF47C020
:10166800DAFFDE2A000EDD22D00E4A6EFF0E4B6E28
:1016780046C0D9FF47C0DAFFDECFF6FFDDCFF7FF60
:101688000800F5504C6E4D6A4A504C264B504D227E
:101698004D5006E10A0E4C5CD8B002D0010E01D0C4
:1016A800000E0001AF6FB06BAF51B011D8A4D5D701
:1016B80046C0D9FF47C0DAFFDECFF6FFDDCFF7FF20
:1016C8000800F550640AD8B40DD046C0D9FF47C009
:1016D800DAFFDECFF6FFDDCFF7FF0800F550690A25
:1016E800D8A43FD046C0D9FF47C0DAFFDE2A000E93
:1016F800DD2248C0D9FF49C0DAFFDFCF4AF0020E29
:10170800DE26DFCF4BF0000EDD224AC0D9FF4BC0EA
:10171800DAFFDECFA5F0DDCFA6F0000EA6BFFF0EE4
:10172800A76FA86FA96FAA6FAB6FAC6F44C020F00A
:1017380045C021F0A5C022F0A6C023F0A7C024F020
:10174800A8C025F0A9C026F0AAC027F0ABC028F091
:10175800ACC029F0FEEC0BF020C044F021C045F0ED
:10176800120046C0D9FF47C0DAFFDECFF6FFDDCF53
:10177800F7FF0800F550250AD8A416D046C0D9FFAF
:1017880047C0DAFFDE2A000EDD22000E066E250EA7
:10179800056E44C007F045C008F0F5EC0FF0000EE8
:1017A800456E010E446E120046C0D9FF47C0DAFFED
:1017B800DE2A000EDD22000E456E000E446E120079
:1017C80046C0D9FF47C0DAFFDECFF6FFDDCFF7FF0F
:1017D8000800F550056E066A44C007F045C008F0D9
:1017E800F5EC0FF046C0D9FF47C0DAFFDE2A000E3D
:1017F800DD22D5D722C03AF023C03BF024C03CF00C
:1018080025C03DF026C03EF027C03FF028C040F07C
:1018180029C041F041AE02D0010E01D0000E386E51
:10182800396A38503910D8B410D0411E401E3F1EB6
:101838003E1E3D1E3C1E3B1E3A6C000E3B223C22C7
:101848003D223E223F2240224122000199AF52927E
:1018580099BF05D0995108E19805D8B005D0000E78
:10186800356E010E346E04D098C034F099C035F04E
:1018780096C036F097C037F038503910D8A402D047
:1018880052A403D03606D8A03706000E436E1F0EAA
:10189800426E000E0101656F7CD04206D8A0430657
:1018A800460E4224D96E010E4320DA6E3AC005F086
:1018B8003BC006F03CC007F03DC008F03EC009F050
:1018C8003FC00AF040C00BF041C00CF00A0E0D6E8C
:1018D800000E0E6E000E0F6E000E106E000E116ED2
:1018E800000E126E000E136E000E146EFDEC0EF05C
:1018F80005C02AF006C02BF007C02CF008C02DF058
:1019080009C02EF00AC02FF00BC030F00CC031F027
:101918002AC017F02CC018F015EC13F01750300F30
:10192800DF6E3406D8A035063606D8A037063AC08A
:1019380005F03BC006F03CC007F03DC008F03EC0D3
:1019480009F03FC00AF040C00BF041C00CF00A0E8D
:101958000D6E000E0E6E000E0F6E000E106E000E55
:10196800116E000E126E000E136E000E146E20EC37
:101978000DF005C03AF006C03BF007C03CF008C0C7
:101988003DF009C03EF00AC03FF00BC040F00CC06B
:1019980041F043BE1FD0435003E14204D8A01AD0FF
:1019A8003A503B103C103D103E103F104010411083
:1019B800D8A473D735BE05D0355002E13404D8B069
:1019C8006CD737BE07D0375003E13604D8A002D011
:1019D80052B263D738503910D8A402D052A417D0C5
:1019E8004206D8A0430638503910D8A404D0000EB7
:1019F800336E2B0E03D0000E336E2D0E326E460E54
:101A08004224D96E010E4320DA6E32C0DFFF20C0B7
:101A180015F021C016F0460E4224176E010E432021
:101A2800186E36C019F037C01AF0DBEC10F015C08C
:101A380020F016C021F01200000E166E14AE12D05F
:101A4800141E131E121E111E101E0F1E0E1E0D6CCC
:101A5800000E0E220F22102211221222132214220B
:101A6800010E166E0CAE12D00C1E0B1E0A1E091E9D
:101A7800081E071E061E056C000E062207220822F5
:101A880009220A220B220C22010E161A20EE17F048
:101A9800070EDE6AE806FDE20D500E100F1010105A
:101AA8001110121013101410D8B446D0010E156E70
:101AB8000AD0D8900D360E360F361036113612363B
:101AC80013361436152A14AEF4D7D89017361836AC
:101AD80019361A361B361C361D361E360D50055C57
:101AE8000E5006580F5007581050085811500958F2
:101AF80012500A5813500B5814500C58D8A011D033
:101B08000D50055E0E50065A0F50075A1050085ACD
:101B18001150095A12500A5A13500B5A14500C5AA1
:101B28001780D890143213321232113210320F3219
:101B38000E320D32152EC9D71650D8B410D01E1E2D
:101B48001D1E1C1E1B1E1A1E191E181E176C000EA9
:101B5800182219221A221B221C221D221E2217C0FB
:101B680005F018C006F019C007F01AC008F01BC02D
:101B780009F01CC00AF01DC00BF01EC00CF01200CA
:101B8800000E1A6E000E196E000E136E000E126E05
:101B980002D00C4A0D2A010E186E0CC0F6FF0DC0BB
:101BA800F7FF0800F550200AD8B418D0F70E0E6ECB
:101BB800FF0E0F6E0CC0F6FF0DC0F7FF0800F550C2
:101BC800106E116A0E5010260F501122115004E1A8
:101BD800050E105CD8A002D0000E186E18C014F0C4
:101BE800156A14501510D8B408D0D3D7000E136E48
:101BF800010E126E0C4A0D2A2ED00CC0F6FF0DC035
:101C0800F7FF0800F5500E6E0F6A0F50000AD8A4AF
:101C180022D00E502B0AD8B4EDD7060AD8B4E6D78E
:101C28001AD019C005F01AC006F0000E086E0A0E88
:101C3800076E5BEC13F00CC0F6FF0DC0F7FF080051
:101C4800F550055E000E065A300E0524196E000E7A
:101C580006201A6ECFD7D00E0E6EFF0E0F6E0CC078
:101C6800F6FF0DC0F7FF0800F550106E116A0E5010
:101C780010260F501122115006E10A0E105CD8B040
:101C880002D0010E01D0000E166E176A16501710FA
:101C9800D8A4C7D712501310D8A40DD019C00EF06D
:101CA8001AC00FF00E1E0F1E0E4A0F2A0EC00CF09F
:101CB8000FC00DF0120019C00CF01AC00DF0120080
:101CC80005C00FF006C010F009500A10D8B4120071
:101CD8000FC0D9FF10C0DAFF07C0DFFF09500F247B
:101CE8000B6E0A5010200C6EFF0E0B24D96EFF0EDF
:101CF8000C20DA6E07C0DFFF0A5004E1030E095C0E
:101D0800D8A0120020EE01F00F50D9261050DA2288
:101D180007C0DFFF20EE02F00F50D9261050DA225C
:101D280007C0DFFF09500F240B6E0A5010200C6EFD
:101D3800FE0E0B24D96EFF0E0C20DA6E07C0DFFFF3
:101D480009500F240B6E0A5010200C6EFD0E0B2448
:101D5800D96EFF0E0C20DA6E07C0DFFF0A5004E1CF
:101D6800070E095CD8A0120020EE03F00F50D92608
:101D78001050DA2207C0DFFF09500F240B6E0A50FB
:101D880010200C6EFC0E0B24D96EFF0E0C20DA6EA0
:101D980007C0DFFF0A5004E1090E095CD8A0120051
:101DA8000FC00BF010C00CF00B1E0C1E0B4A0C2AB7
:101DB800030E0B140D6E0E6A0D500F260E501022D6
:101DC8000D50095E0E500A5AFC0E0916FF0E0A162F
:101DD8000BD00FC0D9FF10C0DAFF07C0DFFF09061C
:101DE800D8A00A060F4A102A09500A10D8B41200BF
:101DF800F0D7000E166E0CAE12D00C1E0B1E0A1E6B
:101E0800091E081E071E061E056C000E0622072264
:101E1800082209220A220B220C22010E166E14AE89
:101E280010D0141E131E121E111E101E0F1E0E1E81
:101E38000D6C000E0E220F221022112212221322E4
:101E480014220D500E100F10101011101210131034
:101E58001410D8B43CD0010E156E0AD0D8900D36A7
:101E68000E360F3610361136123613361436152A3A
:101E780014AEF4D70D50055C0E5006580F50075895
:101E8800105008581150095812500A5813500B583E
:101E980014500C58D8A010D00D50055E0E50065A9C
:101EA8000F50075A1050085A1150095A12500A5A1E
:101EB80013500B5A14500C5AD89014321332123251
:101EC800113210320F320E320D32152ED3D7165072
:101ED800D8B410D00C1E0B1E0A1E091E081E071EA1
:101EE800061E056C000E06220722082209220A2275
:101EF8000B220C2205C005F006C006F007C007F04B
:101F080008C008F009C009F00AC00AF00BC00BF0BD
:101F18000CC00CF01200000E0E6E0CAE0AD00C1E97
:101F28000B1E0A1E096C000E0A220B220C22010E3F
:101F38000E6E08AE0AD0081E071E061E056C000E9F
:101F4800062207220822010E0E1A000E0F6E000E3E
:101F5800106E000E116E000E126E09500A100B1052
:101F68000C10D8B42AD0010E0D6E06D0D8900936C0
:101F78000A360B360C360D2A0CAEF8D7D8900F3629
:101F88001036113612360950055C0A5006580B50A7
:101F980007580C500858D8A009D00950055E0A50B7
:101FA800065A0B50075A0C50085A0F80D8900C321A
:101FB8000B320A3209320D2EE1D70E50D8B408D0B0
:101FC800121E111E101E0F6C000E1022112212225A
:101FD8000FC005F010C006F011C007F012C008F0DD
:101FE800120007500810D8B404D007500810D8A41D
:101FF80004D005508DEC13F0120020EE04F00750C9
:10200800D9260850DA22DE50DE10D8B416D020EED9
:1020180004F00750D9260850DA2210EE02F00750D3
:10202800E1260850E222DE50E65CE650800A0D6E9A
:10203800DE50800A0D58D8B0120020EE02F007508A
:10204800D9260850DA22DECF09F0DDCF0AF007C022
:10205800D9FF08C0DAFFDECF0BF0DDCF0CF0095056
:102068000B24D96E0A500C20DA6E05C0DFFF20EE73
:1020780002F00750D9260850DA22DE2A000EDD22A7
:10208800120013C009F014C00AF015C00BF016C0F6
:102098000CF0000E056E120E066E7A0E076E000E1C
:1020A800086E8FEC0FF005C017F006C018F007C0D7
:1020B80019F008C01AF017C005F018C006F019C0CA
:1020C80007F01AC008F0400E096E000E0A6E000EE6
:1020D8000B6E000E0C6E8FEC0FF0FF0E05241B6EBE
:1020E800FF0E06201C6E000E0F013B6F958E959C0F
:1020F8001C50766E1BC075FF72987294718EB896DC
:102108007188728A709A7082709C729C719C719AA4
:10211800719672907296120013C009F014C00AF0FA
:1021280015C00BF016C00CF0000E056E120E066EF0
:102138007A0E076E000E086E8FEC0FF005C017F0D0
:1021480006C018F007C019F008C01AF017C005F04B
:1021580018C006F019C007F01AC008F0400E096E42
:10216800000E0A6E000E0B6E000E0C6E8FEC0FF058
:10217800FF0E05241B6EFF0E06201C6E000E0F01BD
:102188003A6F948E949C1C50B06E1BC0AFFFAC98F5
:10219800AC94AB8EB896AB88AC8AB89AB882B88C37
:1021A800AC9CAB9CAB9AAB96AC90AC96120052A090
:1021B8000AD017C00EF018C00FF015C010F016C0E6
:1021C80011F0DEEC12F01ABE05D019C01EF01AC0CC
:1021D8001FF004D0000E1F6E000E1E6E000E1D6E46
:1021E800000E1C6E0CD0000E066E200E056E15C07B
:1021F80007F016C008F0F5EC0FF01C4A1D2A1E5017
:102208001C5C1D50800A1B6E1F50800A1B58D8A0EA
:10221800EAD752B00AD017C00EF018C00FF015C098
:1022280010F016C011F0DEEC12F017C005F018C05F
:1022380006F046EC13F01E500524156E1F500620BC
:10224800166E1200D3508F0B6009D36ED350FC0B5F
:102258000209D36E9B9CF28EF28C93809D8AF28841
:10226800F19C000E0F01396F000E386F929494980C
:1022780089948B987D805181F90E536FF19C130ED0
:10228800A96EA680A8CFC7F00001C729D8A404D09A
:10229800000E9B6F780E9A6FC705D8A419D0100E40
:1022A800A96EA680A850640DF3509A27F4509B237A
:1022B800110EA96EA680A8500A0DF3509A27F45063
:1022C8009B23120EA96EA680A8509A27000E9B2366
:1022D8000F0151851200340E116EF20EE82EFED752
:1022E800112EFCD7542A000E136E000E126E000E2B
:1022F8001224D96E020E1320DA6E4F0EDE18D8A4FF
:102308001BD0010E1224D96E020E1320DA6E4B0E6A
:10231800DE18D8A411D0000E056E020E066E000E4F
:10232800086E000E076E000E0A6E096864EC0EF067
:10233800000E546E010E1200124A132A13BED7D78C
:10234800135003E11228D8A0D2D70F0E5418D8B4CE
:10235800FF00000E1200000E136E000E126E2CD03D
:10236800030E116E980EE82EFED7112EFCD7000E24
:102378001224D96E020E1320DA6E430EDE18D8A48A
:1023880019D0010E1224D96E020E1320DA6E610ED6
:10239800DE18D8A40FD0000E056E020E066E000ED1
:1023A800086E000E076E000E0A6E096864EC0EF0E7
:1023B800010E1200124A132A000E1224D96E020EC0
:1023C8001320DA6EFD0EDF64CBD70001A02B000EC0
:1023D80012001C0EF66E270EF76E000EF86E09003E
:1023E800F5CF56F003EE00F010EEFFF0EE6AE55080
:1023F800E150FCE1E250FAE102EE00F010EEFFF0ED
:10240800EE6AE550E150FCE1E250FAE101EE3CF001
:102418002A0EEE6AE806FDE100EE60F0450EEE6A6F
:10242800E806FDE1556A546A536A526A5790579212
:10243800000EF86E0001FAEF12F0B3C04EF0B4C00F
:102448004FF0000E0001956F000E946F13D0B1C0CD
:1024580044F0B2C045F04E0E466E000E476EB5C051
:1024680048F0B6C049F092EC0AF0445000019427B5
:10247800455095234EC0F6FF4FC0F7FF0800F550B2
:102488000009D8A4E4D794C0B1F095C0B2F0120006
:10249800000E0D6E000E0C6E1BD00C5006240A6E3A
:1024A8000D5007200B6E0AC0F6FF0BC0F7FF000E99
:1024B800F86E0F0EF76403D00800F55005D0F6CF7C
:1024C800E1FFF7CFE2FFE75087EC13F00C4A0D2A43
:1024D80008500C5C0D50800A0A6E0950800A0A5890
:1024E800D8B01200DAD7BB0E0001BF6F000EC06F64
:1024F800B7C0C1F0B8C0C2F0000EC46F000EC36F01
:10250800000EC66F000EC56FC10EB16F000EB26F20
:10251800B9C0B3F0BAC0B4F0BF0EB56F000EB66F55
:1025280021EC12F00001C351B725D96EC451B8216E
:10253800DA6E000EDF6E1200010E0B6E200E05180B
:102548000610D8B414D0F70E076EFF0E086E05C03B
:1025580009F006C00AF00750092608500A220A5056
:1025680004E1050E095CD8A002D0000E0B6E0BC06A
:1025780005F0066A120006BE05D00604D8A002D0EF
:102588000650AA6EA6B2FED705C0A9FF07C0A8FFCD
:10259800A684000EF2BE010E086EF29E550EA76EBE
:1025A800AA0EA76EA68208A002D0F28E01D0F29ED3
:1025B800A6941200000E146E000E136E0BD012C0FB
:1025C80005F0066A10C007F011C008F0F5EC0FF02E
:1025D800134A142A13500E24D96E14500F20DA6EA1
:1025E800DF50126E1250D8B41200E9D726EC11F061
:1025F800800E136E250E146E000E156E000E166EEC
:1026080090EC10F0800E136E250E146E000E156EF1
:10261800000E166E45EC10F052EC08F053EC00F08A
:10262800FDD718BE05D0185010E11704D8B00DD04A
:1026380017C019F018C01AF0191E1A1E194A1A2ABA
:1026480019C017F01AC018F0120017C017F018C0F8
:1026580018F01200D00E076EFF0E086E05C009F0C4
:1026680006C00AF00750092608500A220A5006E157
:102678000A0E095CD8B002D0010E01D0000E056E1A
:10268800066A120005C007F006C008F002D0054A25
:10269800062A05C0D9FF06C0DAFFDF50D8A4F7D74D
:1026A8000750055C056E08500658066E1200055066
:1026B8000702F3CF09F0F4CF0AF005500802F350EF
:1026C8000A2606500702F3500A2609C005F00AC078
:1026D80006F01200000E056E000E056E000E0524B1
:1026E800D96EDA6A020EDA22000EDF6E000E556E1F
:1026F800052A0528D8B41200F1D7056EA4A8FED77C
:1027080005C0ADFF1200056E9EA8FED705C0ADFF3F
:05271800120012000197
:10FE46000041542B434950435347503D312C2262C5
:10FE5600736E6C6C697665222C22222C22220D0A86
:10FE66000041542B435354543D2262736E6C6C69AB
:10FE76007665222C22222C22220D0A00205365723E
:10FE86007665722044656C61792054696D652053EE
:10FE96006574203A0D0A0041542B434D4744413DB9
:10FEA6002244454C20414C4C220D0A0041542B4320
:10FEB6004E4D493D322C312C302C302C300D0A0061
:10FEC60020616464205375636365737366756C6C37
:10FED600790A0041542B435343533D224952412250
:10FEE6000D0A00204C494748543120274F464627E3
:10FEF6000D0A0052657374617274204D6F64656DEE
:10FF06000A0D00204C494748543120274F4E270DF3
:10FF16000A00546578742061205374617465730A0D
:10FF26000041542B43464752493D300D0A00415487
:10FF36002B434C54533D300D0A0041542B4355532B
:10FF4600443D310D0A0041542B434D47463D310D8A
:10FF56000A0041542B434C49503D310D0A0041548F
:10FF66002B434D47523D310D0A0041542B43474127
:10FF760054543F0D0A0041542B434D47463D310A28
:10FF86000D0041542B435245473F0D0A0041542B67
:10FF96004353504E3F0D0A004D6173746572204EF7
:10FFA6006F3A0041542B434D47533D22004C69673D
:10FFB60068742031203A004152432D4C4947485439
:10FFC6000041542B4342430D0A0041542B435351E5
:10FFD6000D0A00494D45492049443A004154480A12
:10FFE6000D00253033643A0041540A0D0053494D43
:0AFFF6003A004F4646004F4E00004F
:020000040020DA
:08000000FFFFFFFFFFFFFFFF00
:020000040030CA
:0E000000FF281F3CFFBF85FF00800FE00F4070
:00000001FF
